:020000040800F2
:1000000000500020D90100082B0200083702000828
:100010003D020008430200084902000800000000F9
:100020000000000000000000000000004F02000877
:100030005B0200080000000067020008730200086D
:1000400029020008290200082902000829020008E4
:1000500029020008290200082902000829020008D4
:1000600029020008290200082902000829020008C4
:1000700029020008290200082902000829020008B4
:1000800029020008290200082902000829020008A4
:100090002902000829020008290200082902000894
:1000A0002902000829020008290200082902000884
:1000B0002902000829020008290200082902000874
:1000C0002902000829020008290200082902000864
:1000D0002902000829020008290200082902000854
:1000E0002902000829020008290200080000000077
:1000F0000000000000000000000000000000000000
:0C01000000000000000000005FF808F1A3
:10010C0010B5054C237833B9044B13B10448AFF345
:10011C0000800123237010BD0000002000000000AF
:10012C003C04000808B5034B1BB103490348AFF36B
:10013C00008008BD00000000040000203C04000802
:10014C0080B483B000AF1D4A1C4B9B6943F405730C
:10015C0093611B4A1A4B1B6843F011331360184A06
:10016C00174B1B6843F044331360154A144B5B6800
:10017C0043F011335360124A114B5B6843F0443324
:10018C005360104A0F4B5B6843F4801353600D4A65
:10019C000C4B5B6843F48003536000237B607B68EB
:1001AC00094A934203DC7B6801337B60F7E7054A1D
:1001BC00044BDB6883F40053D360EEE7001002407D
:1001CC000008014000100140404B4C00DFF834D0D7
:1001DC00002103E00C4B5B58435004310B480C4B93
:1001EC0042189A42F6D30B4A02E0002342F8043B31
:1001FC00094B9A42F9D300F03DF800F0F5F8FFF7FF
:10020C009FFF7047005000205C0400080000002095
:10021C0000000020000000201C000020FEE780B43D
:10022C0000AF00BFBD4680BC704780B400AFFEE796
:10023C0080B400AFFEE780B400AFFEE780B400AF3F
:10024C00FEE780B400AF00BFBD4680BC704780B4F1
:10025C0000AF00BFBD4680BC704780B400AF00BF8C
:10026C00BD4680BC704780B400AF00BFBD4680BCAB
:10027C007047000080B500AF154A154B1B6843F062
:10028C00010313601249124B5A68124B13404B6016
:10029C000F4A0F4B1B6823F0847323F480331360D5
:1002AC000B4A0B4B1B6823F480231360084A084B42
:1002BC005B6823F4FE035360054B4FF41F029A60F6
:1002CC0000F00CF8044B4FF000629A6000BF80BD48
:1002DC00001002400000FFF800ED00E080B500AF18
:1002EC0000F002F800BF80BD80B483B000AF0023E3
:1002FC007B6000233B603A4A394B1B6843F48033E4
:10030C001360374B1B6803F400333B607B6801338D
:10031C007B603B68002B03D17B68B3F5A06FF0D1F9
:10032C002F4B1B6803F40033002B02D001233B60DE
:10033C0001E000233B603B68012B4BD1294A294B40
:10034C001B6843F010031360264A264B1B6823F0EE
:10035C0003031360234A234B1B6843F0020313600F
:10036C001F4A1F4B5B6853601D4A1D4B5B685360F3
:10037C001B4A1B4B5B6843F480635360184A184B51
:10038C005B6823F47C135360154A154B5B6843F48C
:10039C00E8135360124A124B1B6843F080731360CE
:1003AC0000BF0F4B1B6803F00073002BF9D00C4AF5
:1003BC000B4B5B6823F003035360094A084B5B68E3
:1003CC0043F00203536000BF054B5B6803F00C0362
:1003DC00082BF9D100BF0C37BD4680BC704700BF5D
:1003EC00001002400020024070B500250C4E0D4C50
:1003FC00A41BA410A54209D100F01AF800250A4E3E
:10040C000A4CA41BA410A54205D170BD56F825308A
:10041C0098470135EEE756F8253098470135F2E755
:10042C00540400085404000854040008580400083C
:10043C00F8B500BFF8BC08BC9E467047F8B500BFC5
:08044C00F8BC08BC9E46704795
:04045400310100086A
:040458000D0100088A
:04000005080001D915
:00000001FF
