:020000040800F2
:1000000000500020090200085B0200086702000897
:100010006D02000873020008790200080000000069
:100020000000000000000000000000007F02000847
:100030008B0200080000000097020008A3020008DD
:100040005902000859020008590200085902000824
:100050005902000859020008B102000859020008BC
:100060005902000859020008590200085902000804
:1000700059020008590200085902000859020008F4
:1000800059020008590200085902000859020008E4
:1000900059020008590200085902000859020008D4
:1000A00059020008590200085902000859020008C4
:1000B00059020008590200085902000859020008B4
:1000C00059020008590200085902000859020008A4
:1000D0005902000859020008590200085902000894
:1000E00059020008590200085902000800000000E7
:1000F0000000000000000000000000000000000000
:0C01000000000000000000005FF808F1A3
:10010C0010B5054C237833B9044B13B10448AFF345
:10011C0000800123237010BD0000002000000000AF
:10012C009804000808B5034B1BB103490348AFF30F
:10013C00008008BD000000000400002098040008A6
:10014C0080B483B000AF264A254B9B6943F019035A
:10015C009361244A234B1B6843F001031360214A2B
:10016C00204B9B6843F0010393601F4B00229A6065
:10017C001E4B40221A601E4A1D4B1B6843F00303A2
:10018C0013601B4A1A4B1B6823F004031360194AB3
:10019C00184B5B6843F440135360164A154B5B686D
:1001AC0043F480035360134A124B5B6843F00063C3
:1001BC005360104A0F4B5B6823F08063536000233D
:1001CC007B607B680C4A934203DC7B6801337B6069
:1001DC00F7E7074A064BDB6883F00103D360EEE7D1
:1001EC0000100240000401400000014000E100E06A
:1001FC00000C014000100140404B4C00DFF834D0A3
:10020C00002103E00C4B5B58435004310B480C4B62
:10021C0042189A42F6D30B4A02E0002342F8043B00
:10022C00094B9A42F9D300F053F800F00BF9FFF7A1
:10023C0087FF704700500020B80400080000002021
:10024C0000000020000000201C000020FEE780B40D
:10025C0000AF00BFBD4680BC704780B400AFFEE766
:10026C0080B400AFFEE780B400AFFEE780B400AF0F
:10027C00FEE780B400AF00BFBD4680BC704780B4C1
:10028C0000AF00BFBD4680BC704780B400AF00BF5C
:10029C00BD4680BC704780B400AF00BFBD4680BC7B
:1002AC007047000080B400AF074A074BDB6883F44B
:1002BC000053D360054A054B5B6943F0010353615E
:1002CC0000BFBD4680BC70470010014000040140D7
:1002DC0080B500AF154A154B1B6843F00103136042
:1002EC001249124B5A68124B13404B600F4A0F4B7A
:1002FC001B6823F0847323F4803313600B4A0B4B7D
:10030C001B6823F480231360084A084B5B6823F4B2
:10031C00FE035360054B4FF41F029A6000F00CF87B
:10032C00044B4FF000629A6000BF80BD0010024089
:10033C000000FFF800ED00E080B500AF00F002F81F
:10034C0000BF80BD80B483B000AF00237B6000236E
:10035C003B603A4A394B1B6843F480331360374B8C
:10036C001B6803F400333B607B6801337B603B68A4
:10037C00002B03D17B68B3F5A06FF0D12F4B1B681A
:10038C0003F40033002B02D001233B6001E0002377
:10039C003B603B68012B4BD1294A294B1B6843F02E
:1003AC0010031360264A264B1B6823F003031360CB
:1003BC00234A234B1B6843F0020313601F4A1F4B55
:1003CC005B6853601D4A1D4B5B6853601B4A1B4B9B
:1003DC005B6843F480635360184A184B5B6823F4E2
:1003EC007C135360154A154B5B6843F4E813536058
:1003FC00124A124B1B6843F08073136000BF0F4B03
:10040C001B6803F00073002BF9D00C4A0B4B5B6894
:10041C0023F003035360094A084B5B6843F0020363
:10042C00536000BF054B5B6803F00C03082BF9D13C
:10043C0000BF0C37BD4680BC704700BF00100240A7
:10044C000020024070B500250C4E0D4CA41BA410CE
:10045C00A54209D100F01AF800250A4E0A4CA41B3B
:10046C00A410A54205D170BD56F82530984701352A
:10047C00EEE756F8253098470135F2E7B00400084E
:10048C00B0040008B0040008B4040008F8B500BFBC
:10049C00F8BC08BC9E467047F8B500BFF8BC08BC59
:0404AC009E467047B1
:0404B000310100080E
:0404B4000D0100082E
:0400000508000209E4
:00000001FF
