:020000040800F2
:1000000000500020E1010008330200083F02000810
:10001000450200084B0200085102000800000000E1
:10002000000000000000000000000000570200086F
:1000300063020008000000006F0200087B02000855
:1000400031020008310200083102000831020008C4
:1000500031020008310200083102000831020008B4
:1000600031020008310200083102000831020008A4
:100070003102000831020008310200083102000894
:100080003102000831020008310200083102000884
:100090003102000831020008310200083102000874
:1000A0003102000831020008310200083102000864
:1000B0003102000831020008310200083102000854
:1000C0003102000831020008310200083102000844
:1000D0003102000831020008310200083102000834
:1000E000310200083102000831020008000000005F
:1000F0000000000000000000000000000000000000
:0C01000000000000000000005FF808F1A3
:10010C0010B5054C237833B9044B13B10448AFF345
:10011C0000800123237010BD0000002000000000AF
:10012C004404000808B5034B1BB103490348AFF363
:10013C00008008BD000000000400002044040008FA
:10014C0080B483B000AF1F4A1E4B9B6943F01C0365
:10015C0093611D4A1C4B1B6843F0030313601A4A3E
:10016C00194B1B6823F004031360184A174B1B68C8
:10017C0023F004031360154A144B1B6843F0080367
:10018C001360134A124B5B6843F440135360104ADC
:10019C000F4B5B6843F0006353600D4A0C4B5B687C
:1001AC0023F080635360084A084B9B68D360084B6C
:1001BC009B6803F480437B60054A7B685B10D360CB
:1001CC00F1E700BF0010024000080140000C0140A4
:1001DC0000100140DFF834D0002103E00C4B5B58D9
:1001EC00435004310B480C4B42189A42F6D30B4A3D
:1001FC0002E0002342F8043B094B9A42F9D300F089
:10020C003DF800F0F5F8FFF79BFF70470050002019
:10021C006404000800000020000000200000002002
:10022C001C000020FEE780B400AF00BFBD4680BCC0
:10023C00704780B400AFFEE780B400AFFEE780B437
:10024C0000AFFEE780B400AFFEE780B400AF00BFA4
:10025C00BD4680BC704780B400AF00BFBD4680BCBB
:10026C00704780B400AF00BFBD4680BC704780B4FF
:10027C0000AF00BFBD4680BC7047000080B500AF2A
:10028C00154A154B1B6843F0010313601249124BBE
:10029C005A68124B13404B600F4A0F4B1B6823F0EC
:1002AC00847323F4803313600B4A0B4B1B6823F4C9
:1002BC0080231360084A084B5B6823F4FE035360E9
:1002CC00054B4FF41F029A6000F00CF8044B4FF0F2
:1002DC0000629A6000BF80BD001002400000FFF871
:1002EC0000ED00E080B500AF00F002F800BF80BD6B
:1002FC0080B483B000AF00237B6000233B603A4A9C
:10030C00394B1B6843F480331360374B1B6803F481
:10031C0000333B607B6801337B603B68002B03D16F
:10032C007B68B3F5A06FF0D12F4B1B6803F400333F
:10033C00002B02D001233B6001E000233B603B68B3
:10034C00012B4BD1294A294B1B6843F01003136036
:10035C00264A264B1B6823F003031360234A234BC6
:10036C001B6843F0020313601F4A1F4B5B6853600A
:10037C001D4A1D4B5B6853601B4A1B4B5B6843F467
:10038C0080635360184A184B5B6823F47C135360EA
:10039C00154A154B5B6843F4E8135360124A124B31
:1003AC001B6843F08073136000BF0F4B1B6803F096
:1003BC000073002BF9D00C4A0B4B5B6823F0030342
:1003CC005360094A084B5B6843F00203536000BF5B
:1003DC00054B5B6803F00C03082BF9D100BF0C37FD
:1003EC00BD4680BC704700BF001002400020024098
:1003FC0070B500250C4E0D4CA41BA410A54209D1C0
:10040C0000F01AF800250A4E0A4CA41BA410A542B1
:10041C0005D170BD56F8253098470135EEE756F8F2
:10042C00253098470135F2E75C0400085C040008AD
:10043C005C04000860040008F8B500BFF8BC08BCF8
:10044C009E467047F8B500BFF8BC08BC9E46704786
:04045C003101000862
:040460000D01000882
:04000005080001E10D
:00000001FF
