:020000040800F2
:100000000050002015020008670200087302000873
:10001000790200087F020008850200080000000045
:100020000000000000000000000000008B0200083B
:100030009702000800000000A3020008AF020008B9
:1000400065020008650200086502000865020008F4
:1000500065020008650200086502000865020008E4
:1000600065020008650200086502000865020008D4
:1000700065020008650200086502000865020008C4
:1000800065020008650200086502000865020008B4
:1000900065020008650200086502000865020008A4
:1000A0006502000865020008650200086502000894
:1000B000BD0200086502000865020008650200082C
:1000C0006502000865020008650200086502000874
:1000D0006502000865020008650200086502000864
:1000E00065020008650200086502000800000000C3
:1000F0000000000000000000000000000000000000
:0C01000000000000000000005FF808F1A3
:10010C0010B5054C237833B9044B13B10448AFF345
:10011C0000800123237010BD0000002000000000AF
:10012C00A804000808B5034B1BB103490348AFF3FF
:10013C00008008BD0000000004000020A804000896
:10014C0080B483B000AF2B4A2A4B9B6943F0180351
:10015C009361284A274BDB6943F00103D3614FF0CD
:10016C00804340F6FF729A854FF0804340F6FF7251
:10017C001A854FF080424FF080439B899BB243F02D
:10018C0001039BB293811C4B4FF080521A604FF0CD
:10019C0080424FF080431B889BB243F001039BB21B
:1001AC001380164A154B5B6843F440135360134A93
:1001BC00124B5B6843F480035360114A104B1B686D
:1001CC0043F0030313600E4A0D4B1B6823F004032A
:1001DC00136000237B607B680A4A934203DC7B68D4
:1001EC0001337B60F7E7054A044BDB6883F400536B
:1001FC00D360EEE70010024000E100E00010014087
:10020C00000C0140404B4C00DFF834D0002103E0DF
:10021C000C4B5B58435004310B480C4B42189A4220
:10022C00F6D30B4A02E0002342F8043B094B9A42F6
:10023C00F9D300F055F800F00DF9FFF781FF704786
:10024C0000500020C804000800000020000000201E
:10025C00000000201C000020FEE780B400AF00BFAF
:10026C00BD4680BC704780B400AFFEE780B400AFE1
:10027C00FEE780B400AFFEE780B400AFFEE780B4C9
:10028C0000AF00BFBD4680BC704780B400AF00BF5C
:10029C00BD4680BC704780B400AF00BFBD4680BC7B
:1002AC00704780B400AF00BFBD4680BC70470000F3
:1002BC0080B400AF4FF080424FF080431B8A9BB25A
:1002CC0023F001039BB21382044A044BDB6883F0D6
:1002DC000103D36000BFBD4680BC7047000C0140D9
:1002EC0080B500AF154A154B1B6843F00103136032
:1002FC001249124B5A68124B13404B600F4A0F4B6A
:10030C001B6823F0847323F4803313600B4A0B4B6C
:10031C001B6823F480231360084A084B5B6823F4A2
:10032C00FE035360054B4FF41F029A6000F00CF86B
:10033C00044B4FF000629A6000BF80BD0010024079
:10034C000000FFF800ED00E080B500AF00F002F80F
:10035C0000BF80BD80B483B000AF00237B6000235E
:10036C003B603A4A394B1B6843F480331360374B7C
:10037C001B6803F400333B607B6801337B603B6894
:10038C00002B03D17B68B3F5A06FF0D12F4B1B680A
:10039C0003F40033002B02D001233B6001E0002367
:1003AC003B603B68012B4BD1294A294B1B6843F01E
:1003BC0010031360264A264B1B6823F003031360BB
:1003CC00234A234B1B6843F0020313601F4A1F4B45
:1003DC005B6853601D4A1D4B5B6853601B4A1B4B8B
:1003EC005B6843F480635360184A184B5B6823F4D2
:1003FC007C135360154A154B5B6843F4E813536048
:10040C00124A124B1B6843F08073136000BF0F4BF2
:10041C001B6803F00073002BF9D00C4A0B4B5B6884
:10042C0023F003035360094A084B5B6843F0020353
:10043C00536000BF054B5B6803F00C03082BF9D12C
:10044C0000BF0C37BD4680BC704700BF0010024097
:10045C000020024070B500250C4E0D4CA41BA410BE
:10046C00A54209D100F01AF800250A4E0A4CA41B2B
:10047C00A410A54205D170BD56F82530984701351A
:10048C00EEE756F8253098470135F2E7C00400082E
:10049C00C0040008C0040008C4040008F8B500BF7C
:1004AC00F8BC08BC9E467047F8B500BFF8BC08BC49
:0404BC009E467047A1
:0404C00031010008FE
:0404C4000D0100081E
:0400000508000215D8
:00000001FF
