:020000040800F2
:1000000000500020BD0100080F0200081B0200087C
:1000100021020008270200082D020008000000004D
:100020000000000000000000000000003302000893
:100030003F020008000000004B02000857020008C1
:100040000D0200080D0200080D0200080D02000854
:100050000D0200080D0200080D0200080D02000844
:100060000D0200080D0200080D0200080D02000834
:100070000D0200080D0200080D0200080D02000824
:100080000D0200080D0200080D0200080D02000814
:100090000D0200080D0200080D0200080D02000804
:1000A0000D0200080D0200080D0200080D020008F4
:1000B0000D0200080D0200080D0200080D020008E4
:1000C0000D0200080D0200080D0200080D020008D4
:1000D0000D020008650200080D0200080D0200086C
:1000E0000D0200080D0200080D02000800000000CB
:1000F0000000000000000000000000000000000000
:0C01000000000000000000005FF808F1A3
:10010C0010B5054C237833B9044B13B10448AFF345
:10011C0000800123237010BD0000002000000000AF
:10012C004404000808B5034B1BB103490348AFF363
:10013C00008008BD000000000400002044040008FA
:10014C0080B400AF164A164B9B6943F4804343F0CE
:10015C0004039361134A134B5B6843F0B003536081
:10016C00104A104B5B6823F0400353600E4A0E4B51
:10017C009B899BB243F4005343F028039BB29381B9
:10018C000A4B20225A60084B41F64C521A81064AFF
:10019C00054B9B899BB243F004039BB29381FEE712
:1001AC0000100240000801400038014000E100E06E
:1001BC00DFF834D0002103E00C4B5B584350043182
:1001CC000B480C4B42189A42F6D30B4A02E0002320
:1001DC0042F8043B094B9A42F9D300F04FF800F077
:1001EC0007F9FFF7ADFF70470050002064040008CA
:1001FC000000002000000020000000201C00002057
:10020C00FEE780B400AF00BFBD4680BC704780B431
:10021C0000AFFEE780B400AFFEE780B400AFFEE7AE
:10022C0080B400AFFEE780B400AF00BFBD4680BC19
:10023C00704780B400AF00BFBD4680BC704780B42F
:10024C0000AF00BFBD4680BC704780B400AF00BF9C
:10025C00BD4680BC7047000080B483B000AF064B35
:10026C009B889BB2FB71044BFA7992B29A8000BFC7
:10027C000C37BD4680BC70470038014080B500AFDC
:10028C00154A154B1B6843F0010313601249124BBE
:10029C005A68124B13404B600F4A0F4B1B6823F0EC
:1002AC00847323F4803313600B4A0B4B1B6823F4C9
:1002BC0080231360084A084B5B6823F4FE035360E9
:1002CC00054B4FF41F029A6000F00CF8044B4FF0F2
:1002DC0000629A6000BF80BD001002400000FFF871
:1002EC0000ED00E080B500AF00F002F800BF80BD6B
:1002FC0080B483B000AF00237B6000233B603A4A9C
:10030C00394B1B6843F480331360374B1B6803F481
:10031C0000333B607B6801337B603B68002B03D16F
:10032C007B68B3F5A06FF0D12F4B1B6803F400333F
:10033C00002B02D001233B6001E000233B603B68B3
:10034C00012B4BD1294A294B1B6843F01003136036
:10035C00264A264B1B6823F003031360234A234BC6
:10036C001B6843F0020313601F4A1F4B5B6853600A
:10037C001D4A1D4B5B6853601B4A1B4B5B6843F467
:10038C0080635360184A184B5B6823F47C135360EA
:10039C00154A154B5B6843F4E8135360124A124B31
:1003AC001B6843F08073136000BF0F4B1B6803F096
:1003BC000073002BF9D00C4A0B4B5B6823F0030342
:1003CC005360094A084B5B6843F00203536000BF5B
:1003DC00054B5B6803F00C03082BF9D100BF0C37FD
:1003EC00BD4680BC704700BF001002400020024098
:1003FC0070B500250C4E0D4CA41BA410A54209D1C0
:10040C0000F01AF800250A4E0A4CA41BA410A542B1
:10041C0005D170BD56F8253098470135EEE756F8F2
:10042C00253098470135F2E75C0400085C040008AD
:10043C005C04000860040008F8B500BFF8BC08BCF8
:10044C009E467047F8B500BFF8BC08BC9E46704786
:04045C003101000862
:040460000D01000882
:04000005080001BD31
:00000001FF
