:020000040800F2
:1000000000500020E1020008330300083F0300080D
:10001000450300084B0300085103000800000000DE
:10002000000000000000000000000000570300086E
:1000300063030008000000006F0300087D03000850
:1000400031030008310300083103000831030008C0
:1000500031030008310300083103000831030008B0
:1000600031030008310300083103000831030008A0
:100070003103000831030008310300083103000890
:100080003103000831030008990300083103000818
:100090003103000831030008310300083103000870
:1000A0003103000831030008310300083103000860
:1000B0002904000831030008310300083103000857
:1000C0003103000831030008310300083103000840
:1000D00031030008B90300083103000831030008A8
:1000E000310300083103000831030008000000005C
:1000F0000000000000000000000000000000000000
:0C01000000000000000000005FF808F1A3
:10010C0010B5054C237833B9044B13B10448AFF345
:10011C0000800123237010BD0000002000000000AF
:10012C001406000808B5034B1BB103490348AFF391
:10013C00008008BD00000000040000201406000828
:10014C0080B485B000AF5D4A5C4B9B6943F480433F
:10015C0043F0040393615A4A594B5B6843F0B00374
:10016C005360574A564B5B6823F040035360554A23
:10017C00544B9B899BB243F4025343F008039BB24C
:10018C009381514B20225A604E4B41F64C521A81AE
:10019C004A4A4A4B9B6943F4047343F0010393614D
:1001AC00494B4FF480221A60444A444B5B6843F439
:1001BC0000435360454A454BDB6A23F47003D3621A
:1001CC00424A424B5B6B23F01F0353633C4A3C4B4C
:1001DC001B6823F00C031360394A394B1B6823F05E
:1001EC0003031360394A394B5B6843F020035360B7
:1001FC00364A364B9B6843F0010393600023FB6047
:10020C0002E0FB680133FB60FB68312BF9DD2F4A00
:10021C002E4B9B6843F0010393600023BB6002E00C
:10022C00BB680133BB60BB68312BF9DD274A274B18
:10023C009B6843F00403936000237B6002E07B68BF
:10024C0001337B607B68312BF9DD1C4A1B4BDB696E
:10025C0043F00103D3614FF0804340F6FF729A855F
:10026C004FF0804340F6FF721A854FF080424FF0FA
:10027C0080439B899BB243F001039BB29381124B49
:10028C004FF080521A604FF080424FF080431B8831
:10029C009BB243F001039BB213800D4A0C4B5B687D
:1002AC0043F4801353600A4A094B5B6843F48003A0
:1002BC005360044B49229A80FEE700BF00100240B5
:1002CC00000801400038014000E100E0002401403A
:1002DC0000100140DFF834D0002103E00C4B5B58D8
:1002EC00435004310B480C4B42189A42F6D30B4A3C
:1002FC0002E0002342F8043B094B9A42F9D300F088
:10030C00A5F800F05DF9FFF71BFF704700500020C7
:10031C00340600080000002000000020000000202F
:10032C0024000020FEE780B400AF00BFBD4680BCB7
:10033C00704780B400AFFEE780B400AFFEE780B436
:10034C0000AFFEE780B400AFFEE780B400AF00BFA3
:10035C00BD4680BC704780B400AF00BFBD4680BCBA
:10036C00704780B400AF00BFBD4680BC7047000032
:10037C0080B400AF044A044BDB6883F40053D360B1
:10038C0000BFBD4680BC70470010014080B400AF78
:10039C00044BDB6C9AB2044B1A8000BFBD4680BC88
:1003AC00704700BF002401402000002080B400AF43
:1003BC00164B1B68002B09D1154B164A12889A80D4
:1003CC00124B1B680133114A13601BE00F4B1B6867
:1003DC00012B08D10E4B2B229A800C4B1B6801333E
:1003EC000A4A13600EE00A4A0A4B1B881B0A9BB28E
:1003FC009380064B00221A60074A074B9B6843F018
:10040C000103936000BFBD4680BC70471C000020F8
:10041C0000380140200000200024014080B400AFCF
:10042C004FF080424FF080431B8A9BB223F00103B4
:10043C009BB21382044A044BDB6883F40053D360F1
:10044C0000BFBD4680BC70470010014080B500AFB6
:10045C00154A154B1B6843F0010313601249124BEC
:10046C005A68124B13404B600F4A0F4B1B6823F01A
:10047C00847323F4803313600B4A0B4B1B6823F4F7
:10048C0080231360084A084B5B6823F4FE03536017
:10049C00054B4FF41F029A6000F00CF8044B4FF020
:1004AC0000629A6000BF80BD001002400000FFF89F
:1004BC0000ED00E080B500AF00F002F800BF80BD99
:1004CC0080B483B000AF00237B6000233B603A4ACA
:1004DC00394B1B6843F480331360374B1B6803F4B0
:1004EC0000333B607B6801337B603B68002B03D19E
:1004FC007B68B3F5A06FF0D12F4B1B6803F400336E
:10050C00002B02D001233B6001E000233B603B68E1
:10051C00012B4BD1294A294B1B6843F01003136064
:10052C00264A264B1B6823F003031360234A234BF4
:10053C001B6843F0020313601F4A1F4B5B68536038
:10054C001D4A1D4B5B6853601B4A1B4B5B6843F495
:10055C0080635360184A184B5B6823F47C13536018
:10056C00154A154B5B6843F4E8135360124A124B5F
:10057C001B6843F08073136000BF0F4B1B6803F0C4
:10058C000073002BF9D00C4A0B4B5B6823F0030370
:10059C005360094A084B5B6843F00203536000BF89
:1005AC00054B5B6803F00C03082BF9D100BF0C372B
:1005BC00BD4680BC704700BF0010024000200240C6
:1005CC0070B500250C4E0D4CA41BA410A54209D1EE
:1005DC0000F01AF800250A4E0A4CA41BA410A542E0
:1005EC0005D170BD56F8253098470135EEE756F821
:1005FC00253098470135F2E72C0600082C06000838
:10060C002C06000830060008F8B500BFF8BC08BC82
:10061C009E467047F8B500BFF8BC08BC9E467047B4
:04062C003101000890
:040630000D010008B0
:04000005080002E10C
:00000001FF
