:020000040800F2
:1000000000500020AD020008FF0200080B030008AA
:1000100011030008170300081D030008000000007A
:1000200000000000000000000000000023030008A2
:100030002F030008000000003B03000847030008EE
:10004000FD020008FD020008FD020008FD02000894
:10005000FD020008FD020008FD020008FD02000884
:10006000FD020008FD020008FD020008FD02000874
:10007000FD020008FD020008FD020008FD02000864
:10008000FD020008FD020008FD020008FD02000854
:10009000FD020008FD020008FD020008FD02000844
:1000A000FD020008FD020008FD020008FD02000834
:1000B0009D030008FD020008FD020008FD02000883
:1000C000FD020008FD020008FD020008CD03000843
:1000D000FD02000855030008FD020008FD020008AB
:1000E000FD020008FD020008FD02000800000000FB
:1000F0000000000000000000000000000000000000
:0C01000000000000000000005FF808F1A3
:10010C0010B5054C237833B9044B13B10448AFF345
:10011C0000800123237010BD0400002000000000AB
:10012C001C06000808B5034B1BB103490348AFF389
:10013C00008008BD00000000080000201C0600081C
:10014C0080B400AF504A504B9B6943F0110393614C
:10015C004D4A4D4BDB6943F00103D3614FF08043B3
:10016C0040F6FF729A854FF0804340F6FF721A8575
:10017C004FF080424FF080439B899BB243F00103C8
:10018C009BB29381414B4FF080521A604FF08042EA
:10019C004FF080431B889BB243F001039BB213804A
:1001AC003B4A3B4B5B6843F044735360384A384BD3
:1001BC005B6843F480035360334A334B9B6943F4CD
:1001CC00804343F004039361324A324B5B6843F043
:1001DC00B00353602F4A2F4B5B6823F040035360EE
:1001EC002D4A2D4B9B899BB243F4005343F02C03B7
:1001FC009BB29381254B20225A60274B41F64C52DF
:10020C001A81214A204B9B6943F480539361234A02
:10021C00224B1B889BB243F038039BB213801F4ABE
:10022C001E4B1B889BB243F440739BB21380194A3C
:10023C00184B1B6823F0804323F488031360154A82
:10024C00144B1B6843F0304343F433031360104AE0
:10025C000F4B5B6823F0806353600C4B08225A6091
:10026C000E4A0E4B9B889BB243F080039BB293804B
:10027C000A4A0A4B1B889BB243F044039BB213807F
:10028C00064B01229A81FEE70010024000E100E0DB
:10029C0000100140000801400038014000300140CE
:1002AC00DFF834D0002103E00C4B5B584350043191
:1002BC000B480C4B42189A42F6D30B4A02E000232F
:1002CC0042F8043B094B9A42F9D300F0C3F800F012
:1002DC007BF9FFF735FF7047005000203C06000803
:1002EC00000000200400002004000020200000205A
:1002FC00FEE780B400AF00BFBD4680BC704780B441
:10030C0000AFFEE780B400AFFEE780B400AFFEE7BD
:10031C0080B400AFFEE780B400AF00BFBD4680BC28
:10032C00704780B400AF00BFBD4680BC704780B43E
:10033C0000AF00BFBD4680BC704780B400AF00BFAB
:10034C00BD4680BC7047000080B400AF0D4B9B884D
:10035C009BB2DAB20C4B1A700A4B0B4A127892B25F
:10036C009A800A4A094B1B889BB243F040039BB20C
:10037C001380064B044A127892B29A8100BFBD4694
:10038C0080BC704700380140000000200030014064
:10039C0080B400AF4FF080424FF080431B8A9BB279
:1003AC0023F001039BB21382044A044BDB6883F4F1
:1003BC000053D36000BFBD4680BC704700100140A5
:1003CC0080B483B000AF1E4A1D4B1B6943F0100371
:1003DC00136100237B6002E07B6801337B607B68E8
:1003EC00184A9342F8DD164A154B5B6943F010032B
:1003FC005361154A144B5B6943F4804353610023EA
:10040C003B6002E03B6801333B603B680D4A934222
:10041C00F8DD0D4A0C4B1B6943F4804313610B4B05
:10042C005A229A800A4A0A4B1B889BB223F040033B
:10043C009BB2138000BF0C37BD4680BC704700BF19
:10044C0000080140FF340C0000100140003801404E
:10045C000030014080B500AF154A154B1B6843F0C6
:10046C00010313601249124B5A68124B13404B6034
:10047C000F4A0F4B1B6823F0847323F480331360F3
:10048C000B4A0B4B1B6823F480231360084A084B60
:10049C005B6823F4FE035360054B4FF41F029A6014
:1004AC0000F00CF8044B4FF000629A6000BF80BD66
:1004BC00001002400000FFF800ED00E080B500AF36
:1004CC0000F002F800BF80BD80B483B000AF002301
:1004DC007B6000233B603A4A394B1B6843F4803302
:1004EC001360374B1B6803F400333B607B680133AC
:1004FC007B603B68002B03D17B68B3F5A06FF0D118
:10050C002F4B1B6803F40033002B02D001233B60FC
:10051C0001E000233B603B68012B4BD1294A294B5E
:10052C001B6843F010031360264A264B1B6823F00C
:10053C0003031360234A234B1B6843F0020313602D
:10054C001F4A1F4B5B6853601D4A1D4B5B68536011
:10055C001B4A1B4B5B6843F480635360184A184B6F
:10056C005B6823F47C135360154A154B5B6843F4AA
:10057C00E8135360124A124B1B6843F080731360EC
:10058C0000BF0F4B1B6803F00073002BF9D00C4A13
:10059C000B4B5B6823F003035360094A084B5B6801
:1005AC0043F00203536000BF054B5B6803F00C0380
:1005BC00082BF9D100BF0C37BD4680BC704700BF7B
:1005CC00001002400020024070B500250C4E0D4C6E
:1005DC00A41BA410A54209D100F01AF800250A4E5C
:1005EC000A4CA41BA410A54205D170BD56F82530A9
:1005FC0098470135EEE756F8253098470135F2E774
:10060C0034060008340600083406000838060008D2
:10061C00F8B500BFF8BC08BC9E467047F8B500BFE3
:08062C00F8BC08BC9E467047B3
:040634003101000888
:040638000D010008A8
:04063C00AA00000010
:04000005080002AD40
:00000001FF
