:020000040800F2
:1000000000500020CD0200081F0300082B03000849
:1000100031030008370300083D030008000000001A
:100020000000000000000000000000004303000882
:100030004F030008000000005B030008670300088E
:100040001D0300081D0300081D0300081D03000810
:100050001D0300081D0300081D0300081D03000800
:100060001D0300081D0300081D0300081D030008F0
:100070001D0300081D0300081D0300081D030008E0
:100080001D0300081D0300081D0300081D030008D0
:100090001D0300081D0300081D0300081D030008C0
:1000A0001D0300081D0300081D0300081D030008B0
:1000B000A10300081D0300081D0300081D0300081C
:1000C0001D0300081D0300081D030008D1030008DC
:1000D0001D030008750300081D0300081D03000828
:1000E0001D0300081D0300081D0300080000000098
:1000F0000000000000000000000000000000000000
:0C01000000000000000000005FF808F1A3
:10010C0010B5054C237833B9044B13B10448AFF345
:10011C0000800123237010BD0400002000000000AB
:10012C008806000808B5034B1BB103490348AFF31D
:10013C00008008BD000000000800002088060008B0
:10014C0080B400AF584A584B9B6943F0110393613C
:10015C00554A554BDB6943F00103D3614FF08043A3
:10016C0040F6FF729A854FF0804340F6FF721A8575
:10017C004FF080424FF080439B899BB243F00103C8
:10018C009BB29381494B4FF080521A604FF08042E2
:10019C004FF080431B889BB243F001039BB213804A
:1001AC00434A434B5B6843F04C5343F48013536016
:1001BC003F4A3F4B5B6843F4800353603A4A3A4BE7
:1001CC009B6943F4804343F004039361394A394BF0
:1001DC005B6843F0B0035360364A364B5B6823F0E0
:1001EC0040035360344A344B9B899BB243F4005315
:1001FC0043F02C039BB293812C4B20225A602E4B44
:10020C0041F64C521A81284A274B9B6943F4805380
:10021C0093612A4A294B1B889BB243F038039BB24B
:10022C001380264A254B1B889BB243F400639BB278
:10023C001380224A214B1B889BB243F440739BB220
:10024C0013801C4A1B4B1B6823F0884323F4880340
:10025C001360184A174B1B6843F03B4343F43303BA
:10026C001360134A124B5B6823F0884353600F4BA7
:10027C0008225A60114A114B9B889BB243F04003F1
:10028C009BB293800D4A0D4B1B889BB243F04403E9
:10029C009BB21380094B00229A81054A044B5B697F
:1002AC0043F400435361FEE70010024000E100E01C
:1002BC0000100140000801400038014000300140AE
:1002CC00DFF834D0002103E00C4B5B584350043171
:1002DC000B480C4B42189A42F6D30B4A02E000230F
:1002EC0042F8043B094B9A42F9D300F0E9F800F0CC
:1002FC00A1F9FFF725FF704700500020A806000861
:10030C000000002004000020040000202400002035
:10031C00FEE780B400AF00BFBD4680BC704780B420
:10032C0000AFFEE780B400AFFEE780B400AFFEE79D
:10033C0080B400AFFEE780B400AF00BFBD4680BC08
:10034C00704780B400AF00BFBD4680BC704780B41E
:10035C0000AF00BFBD4680BC704780B400AF00BF8B
:10036C00BD4680BC7047000080B400AF074B9B8833
:10037C009BB2DAB2064B1A70044B054A127892B251
:10038C009A8000BFBD4680BC704700BF003801405A
:10039C000000002080B400AF4FF080424FF080434B
:1003AC001B8A9BB223F001039BB21382044A044BB9
:1003BC00DB6883F40053D36000BFBD4680BC70473C
:1003CC000010014080B485B000AF354A344B1B6936
:1003DC0043F0100313610023FB6002E0FB68013360
:1003EC00FB60FB682F4A9342F8DD2D4A2C4B5B696E
:1003FC0043F0100353612C4A2B4B1B6943F400430D
:10040C0013610023BB6002E0BB680133BB60BB68B7
:10041C00264A9342F8DD244A234B5B6943F480431C
:10042C00536100237B6002E07B6801337B607B6857
:10043C001C4A9342F8DD1C4A1B4B1B6943F4804356
:10044C0013611B4B9B899AB21A4B1A80194B1B8850
:10045C00DB109BB2C3F30B037B807B889B02164A99
:10046C0082FB03121A44D212DB17D31A7B80134A75
:10047C007B8893800E4A7B88938100BF0C4B1B8931
:10048C009BB203F00203002BF8D0074A064B5B69C2
:10049C0043F40043536100BF1437BD4680BC704722
:1004AC0000080140FF340C00001001409F86010041
:1004BC0000300140200000208100088000380140FD
:1004CC0080B500AF154A154B1B6843F00103136050
:1004DC001249124B5A68124B13404B600F4A0F4B88
:1004EC001B6823F0847323F4803313600B4A0B4B8B
:1004FC001B6823F480231360084A084B5B6823F4C1
:10050C00FE035360054B4FF41F029A6000F00CF889
:10051C00044B4FF000629A6000BF80BD0010024097
:10052C000000FFF800ED00E080B500AF00F002F82D
:10053C0000BF80BD80B483B000AF00237B6000237C
:10054C003B603A4A394B1B6843F480331360374B9A
:10055C001B6803F400333B607B6801337B603B68B2
:10056C00002B03D17B68B3F5A06FF0D12F4B1B6828
:10057C0003F40033002B02D001233B6001E0002385
:10058C003B603B68012B4BD1294A294B1B6843F03C
:10059C0010031360264A264B1B6823F003031360D9
:1005AC00234A234B1B6843F0020313601F4A1F4B63
:1005BC005B6853601D4A1D4B5B6853601B4A1B4BA9
:1005CC005B6843F480635360184A184B5B6823F4F0
:1005DC007C135360154A154B5B6843F4E813536066
:1005EC00124A124B1B6843F08073136000BF0F4B11
:1005FC001B6803F00073002BF9D00C4A0B4B5B68A3
:10060C0023F003035360094A084B5B6843F0020371
:10061C00536000BF054B5B6803F00C03082BF9D14A
:10062C0000BF0C37BD4680BC704700BF00100240B5
:10063C000020024070B500250C4E0D4CA41BA410DC
:10064C00A54209D100F01AF800250A4E0A4CA41B49
:10065C00A410A54205D170BD56F825309847013538
:10066C00EEE756F8253098470135F2E7A00600086A
:10067C00A0060008A0060008A4060008F8B500BFF4
:10068C00F8BC08BC9E467047F8B500BFF8BC08BC67
:04069C009E467047BF
:0406A000310100081C
:0406A4000D0100083C
:0406A800AA000000A4
:04000005080002CD20
:00000001FF
